{
  "contractName": "Invoice",
  "abi": [
    {
      "inputs": [
        {
          "name": "_seller",
          "type": "address"
        },
        {
          "name": "_payer",
          "type": "address"
        },
        {
          "name": "_invoiceId",
          "type": "uint256"
        },
        {
          "name": "_payDueDate",
          "type": "uint256"
        },
        {
          "name": "_item",
          "type": "string"
        },
        {
          "name": "_quantity",
          "type": "uint256"
        },
        {
          "name": "_pricePerUnit",
          "type": "uint256"
        },
        {
          "name": "_amountForPay",
          "type": "uint256"
        },
        {
          "name": "_currency",
          "type": "string"
        },
        {
          "name": "_messageToRecipient",
          "type": "string"
        },
        {
          "name": "caleroMain",
          "type": "address"
        }
      ],
      "payable": false,
      "stateMutability": "nonpayable",
      "type": "constructor"
    },
    {
      "anonymous": false,
      "inputs": [
        {
          "indexed": false,
          "name": "time",
          "type": "uint256"
        }
      ],
      "name": "InvoiceClosed",
      "type": "event"
    },
    {
      "anonymous": false,
      "inputs": [
        {
          "indexed": false,
          "name": "owner",
          "type": "address"
        },
        {
          "indexed": false,
          "name": "time",
          "type": "uint256"
        }
      ],
      "name": "WithdrawMoney",
      "type": "event"
    },
    {
      "anonymous": false,
      "inputs": [
        {
          "indexed": false,
          "name": "company",
          "type": "address"
        },
        {
          "indexed": false,
          "name": "message",
          "type": "string"
        }
      ],
      "name": "CommentSent",
      "type": "event"
    },
    {
      "anonymous": false,
      "inputs": [
        {
          "indexed": false,
          "name": "oldValue",
          "type": "address"
        },
        {
          "indexed": false,
          "name": "newValue",
          "type": "address"
        }
      ],
      "name": "OwnerChanged",
      "type": "event"
    },
    {
      "anonymous": false,
      "inputs": [
        {
          "indexed": false,
          "name": "oldValue",
          "type": "address"
        },
        {
          "indexed": false,
          "name": "newValue",
          "type": "address"
        }
      ],
      "name": "CostumerChanged",
      "type": "event"
    },
    {
      "anonymous": false,
      "inputs": [
        {
          "indexed": false,
          "name": "oldValue",
          "type": "uint256"
        },
        {
          "indexed": false,
          "name": "newValue",
          "type": "uint256"
        }
      ],
      "name": "InvoiceIdChanged",
      "type": "event"
    },
    {
      "anonymous": false,
      "inputs": [
        {
          "indexed": false,
          "name": "oldValue",
          "type": "uint256"
        },
        {
          "indexed": false,
          "name": "newValue",
          "type": "uint256"
        }
      ],
      "name": "PayDueDateChanged",
      "type": "event"
    },
    {
      "anonymous": false,
      "inputs": [
        {
          "indexed": false,
          "name": "oldValue",
          "type": "string"
        },
        {
          "indexed": false,
          "name": "newValue",
          "type": "string"
        }
      ],
      "name": "ItemChanged",
      "type": "event"
    },
    {
      "anonymous": false,
      "inputs": [
        {
          "indexed": false,
          "name": "oldValue",
          "type": "uint256"
        },
        {
          "indexed": false,
          "name": "newValue",
          "type": "uint256"
        }
      ],
      "name": "QuantityChanged",
      "type": "event"
    },
    {
      "anonymous": false,
      "inputs": [
        {
          "indexed": false,
          "name": "oldValue",
          "type": "uint256"
        },
        {
          "indexed": false,
          "name": "newValue",
          "type": "uint256"
        }
      ],
      "name": "PricePerUnitChanged",
      "type": "event"
    },
    {
      "anonymous": false,
      "inputs": [
        {
          "indexed": false,
          "name": "oldValue",
          "type": "uint256"
        },
        {
          "indexed": false,
          "name": "newValue",
          "type": "uint256"
        }
      ],
      "name": "AmountForTransferChanged",
      "type": "event"
    },
    {
      "anonymous": false,
      "inputs": [
        {
          "indexed": false,
          "name": "oldValue",
          "type": "string"
        },
        {
          "indexed": false,
          "name": "newValue",
          "type": "string"
        }
      ],
      "name": "CurrencyChanged",
      "type": "event"
    },
    {
      "anonymous": false,
      "inputs": [
        {
          "indexed": false,
          "name": "oldValue",
          "type": "string"
        },
        {
          "indexed": false,
          "name": "newValue",
          "type": "string"
        }
      ],
      "name": "MessageToRecipientChanged",
      "type": "event"
    },
    {
      "constant": false,
      "inputs": [
        {
          "name": "payer",
          "type": "address"
        }
      ],
      "name": "buyInvoice",
      "outputs": [],
      "payable": true,
      "stateMutability": "payable",
      "type": "function"
    },
    {
      "constant": false,
      "inputs": [
        {
          "name": "owner",
          "type": "address"
        }
      ],
      "name": "withdrawMoney",
      "outputs": [],
      "payable": false,
      "stateMutability": "nonpayable",
      "type": "function"
    },
    {
      "constant": false,
      "inputs": [
        {
          "name": "payer",
          "type": "address"
        },
        {
          "name": "message",
          "type": "string"
        }
      ],
      "name": "sendComments",
      "outputs": [],
      "payable": false,
      "stateMutability": "nonpayable",
      "type": "function"
    },
    {
      "constant": true,
      "inputs": [],
      "name": "getOwner",
      "outputs": [
        {
          "name": "",
          "type": "address"
        }
      ],
      "payable": false,
      "stateMutability": "view",
      "type": "function"
    },
    {
      "constant": true,
      "inputs": [],
      "name": "listOwners",
      "outputs": [
        {
          "name": "",
          "type": "address[]"
        }
      ],
      "payable": false,
      "stateMutability": "view",
      "type": "function"
    },
    {
      "constant": true,
      "inputs": [],
      "name": "getCustomer",
      "outputs": [
        {
          "name": "",
          "type": "address"
        }
      ],
      "payable": false,
      "stateMutability": "view",
      "type": "function"
    },
    {
      "constant": true,
      "inputs": [],
      "name": "getInvoiceId",
      "outputs": [
        {
          "name": "",
          "type": "uint256"
        }
      ],
      "payable": false,
      "stateMutability": "view",
      "type": "function"
    },
    {
      "constant": true,
      "inputs": [],
      "name": "getIssueDate",
      "outputs": [
        {
          "name": "",
          "type": "uint256"
        }
      ],
      "payable": false,
      "stateMutability": "view",
      "type": "function"
    },
    {
      "constant": true,
      "inputs": [],
      "name": "getPayDueDate",
      "outputs": [
        {
          "name": "",
          "type": "uint256"
        }
      ],
      "payable": false,
      "stateMutability": "view",
      "type": "function"
    },
    {
      "constant": true,
      "inputs": [],
      "name": "getItem",
      "outputs": [
        {
          "name": "",
          "type": "string"
        }
      ],
      "payable": false,
      "stateMutability": "view",
      "type": "function"
    },
    {
      "constant": true,
      "inputs": [],
      "name": "getQuantity",
      "outputs": [
        {
          "name": "",
          "type": "uint256"
        }
      ],
      "payable": false,
      "stateMutability": "view",
      "type": "function"
    },
    {
      "constant": true,
      "inputs": [],
      "name": "getPricePerUnit",
      "outputs": [
        {
          "name": "",
          "type": "uint256"
        }
      ],
      "payable": false,
      "stateMutability": "view",
      "type": "function"
    },
    {
      "constant": true,
      "inputs": [],
      "name": "getAmount",
      "outputs": [
        {
          "name": "",
          "type": "uint256"
        }
      ],
      "payable": false,
      "stateMutability": "view",
      "type": "function"
    },
    {
      "constant": true,
      "inputs": [],
      "name": "getCurrency",
      "outputs": [
        {
          "name": "",
          "type": "string"
        }
      ],
      "payable": false,
      "stateMutability": "view",
      "type": "function"
    },
    {
      "constant": true,
      "inputs": [],
      "name": "getMessageToRecipient",
      "outputs": [
        {
          "name": "",
          "type": "string"
        }
      ],
      "payable": false,
      "stateMutability": "view",
      "type": "function"
    },
    {
      "constant": true,
      "inputs": [],
      "name": "getState",
      "outputs": [
        {
          "name": "",
          "type": "uint8"
        }
      ],
      "payable": false,
      "stateMutability": "view",
      "type": "function"
    },
    {
      "constant": false,
      "inputs": [
        {
          "name": "owner",
          "type": "address"
        },
        {
          "name": "newOwner",
          "type": "address"
        }
      ],
      "name": "changeOwner",
      "outputs": [],
      "payable": false,
      "stateMutability": "nonpayable",
      "type": "function"
    },
    {
      "constant": false,
      "inputs": [
        {
          "name": "owner",
          "type": "address"
        },
        {
          "name": "payer",
          "type": "address"
        }
      ],
      "name": "setCustomer",
      "outputs": [],
      "payable": false,
      "stateMutability": "nonpayable",
      "type": "function"
    },
    {
      "constant": false,
      "inputs": [
        {
          "name": "owner",
          "type": "address"
        },
        {
          "name": "invoiceId",
          "type": "uint256"
        }
      ],
      "name": "setInvoiceId",
      "outputs": [],
      "payable": false,
      "stateMutability": "nonpayable",
      "type": "function"
    },
    {
      "constant": false,
      "inputs": [
        {
          "name": "owner",
          "type": "address"
        },
        {
          "name": "payDueDate",
          "type": "uint256"
        }
      ],
      "name": "setPayDueDate",
      "outputs": [],
      "payable": false,
      "stateMutability": "nonpayable",
      "type": "function"
    },
    {
      "constant": false,
      "inputs": [
        {
          "name": "owner",
          "type": "address"
        },
        {
          "name": "item",
          "type": "string"
        }
      ],
      "name": "setItem",
      "outputs": [],
      "payable": false,
      "stateMutability": "nonpayable",
      "type": "function"
    },
    {
      "constant": false,
      "inputs": [
        {
          "name": "owner",
          "type": "address"
        },
        {
          "name": "quantity",
          "type": "uint256"
        }
      ],
      "name": "setQuantity",
      "outputs": [],
      "payable": false,
      "stateMutability": "nonpayable",
      "type": "function"
    },
    {
      "constant": false,
      "inputs": [
        {
          "name": "owner",
          "type": "address"
        },
        {
          "name": "pricePerUnit",
          "type": "uint256"
        }
      ],
      "name": "setPricePerUnit",
      "outputs": [],
      "payable": false,
      "stateMutability": "nonpayable",
      "type": "function"
    },
    {
      "constant": false,
      "inputs": [
        {
          "name": "owner",
          "type": "address"
        },
        {
          "name": "amount",
          "type": "uint256"
        }
      ],
      "name": "setAmount",
      "outputs": [],
      "payable": false,
      "stateMutability": "nonpayable",
      "type": "function"
    },
    {
      "constant": false,
      "inputs": [
        {
          "name": "owner",
          "type": "address"
        },
        {
          "name": "currency",
          "type": "string"
        }
      ],
      "name": "setCurrency",
      "outputs": [],
      "payable": false,
      "stateMutability": "nonpayable",
      "type": "function"
    },
    {
      "constant": false,
      "inputs": [
        {
          "name": "owner",
          "type": "address"
        },
        {
          "name": "messageToRecipient",
          "type": "string"
        }
      ],
      "name": "setMessageToRecipient",
      "outputs": [],
      "payable": false,
      "stateMutability": "nonpayable",
      "type": "function"
    },
    {
      "constant": false,
      "inputs": [
        {
          "name": "owner",
          "type": "address"
        }
      ],
      "name": "kill",
      "outputs": [],
      "payable": false,
      "stateMutability": "nonpayable",
      "type": "function"
    }
  ],
  "bytecode": "0x606060405234156200001057600080fd5b60405162002ae438038062002ae4833981016040528080519060200190919080519060200190919080519060200190919080519060200190919080518201919060200180519060200190919080519060200190919080519060200190919080518201919060200180518201919060200180519060200190919050508a600060010160006101000a81548173ffffffffffffffffffffffffffffffffffffffff021916908373ffffffffffffffffffffffffffffffffffffffff16021790555060006002018054806001018281620000e891906200027d565b916000526020600020900160008d909190916101000a81548173ffffffffffffffffffffffffffffffffffffffff021916908373ffffffffffffffffffffffffffffffffffffffff1602179055505089600060070160006101000a81548173ffffffffffffffffffffffffffffffffffffffff021916908373ffffffffffffffffffffffffffffffffffffffff1602179055508860006003018190555042600060040181905550876000600501819055508660006008019080519060200190620001b4929190620002ac565b5085600060090181905550846000600a0181905550836000600b0181905550826000600c019080519060200190620001ee929190620002ac565b50816000600d0190805190602001906200020a929190620002ac565b50600080600e0160006101000a81548160ff021916908360ff160217905550806000800160006101000a81548173ffffffffffffffffffffffffffffffffffffffff021916908373ffffffffffffffffffffffffffffffffffffffff16021790555050505050505050505050506200035b565b815481835581811511620002a757818360005260206000209182019101620002a6919062000333565b5b505050565b828054600181600116156101000203166002900490600052602060002090601f016020900481019282601f10620002ef57805160ff191683800117855562000320565b8280016001018555821562000320579182015b828111156200031f57825182559160200191906001019062000302565b5b5090506200032f919062000333565b5090565b6200035891905b80821115620003545760008160009055506001016200033a565b5090565b90565b612779806200036b6000396000f30060606040526004361061015f576000357c0100000000000000000000000000000000000000000000000000000000900463ffffffff1680630115949c146101645780630f0bca3e1461018d5780631865c57d146101bb57806326bbf431146101ea5780632707eec0146102665780632f971029146102be5780633263e78b146102f757806344e3ad71146103205780635ca052db14610362578063650d993b146103de5780636945c1fd146104335780637dedde7c146104c1578063893d20e81461053d5780638bf9761d1461059257806395aa16c814610620578063a4fe27bd1461069c578063a7cc53f5146106c5578063add6a687146106ee578063c412eaba14610730578063cbf0b0c0146107be578063d2fafb19146107f7578063d321fe2914610839578063d4fc7cd914610862578063dc71ebe61461088b578063e915220d146108cd578063ed60c0fc1461090f578063f00d4b5d14610979575b600080fd5b341561016f57600080fd5b6101776109d1565b6040518082815260200191505060405180910390f35b6101b9600480803573ffffffffffffffffffffffffffffffffffffffff169060200190919050506109dd565b005b34156101c657600080fd5b6101ce610d26565b604051808260ff1660ff16815260200191505060405180910390f35b34156101f557600080fd5b610264600480803573ffffffffffffffffffffffffffffffffffffffff1690602001909190803590602001908201803590602001908080601f01602080910402602001604051908101604052809392919081815260200183838082843782019150505050505091905050610d3f565b005b341561027157600080fd5b6102bc600480803573ffffffffffffffffffffffffffffffffffffffff1690602001909190803573ffffffffffffffffffffffffffffffffffffffff16906020019091905050610ed0565b005b34156102c957600080fd5b6102f5600480803573ffffffffffffffffffffffffffffffffffffffff169060200190919050506110b4565b005b341561030257600080fd5b61030a611300565b6040518082815260200191505060405180910390f35b341561032b57600080fd5b610360600480803573ffffffffffffffffffffffffffffffffffffffff1690602001909190803590602001909190505061130c565b005b341561036d57600080fd5b6103dc600480803573ffffffffffffffffffffffffffffffffffffffff1690602001909190803590602001908201803590602001908080601f0160208091040260200160405190810160405280939291908181526020018383808284378201915050505050509190505061143e565b005b34156103e957600080fd5b6103f1611666565b604051808273ffffffffffffffffffffffffffffffffffffffff1673ffffffffffffffffffffffffffffffffffffffff16815260200191505060405180910390f35b341561043e57600080fd5b610446611692565b6040518080602001828103825283818151815260200191508051906020019080838360005b8381101561048657808201518184015260208101905061046b565b50505050905090810190601f1680156104b35780820380516001836020036101000a031916815260200191505b509250505060405180910390f35b34156104cc57600080fd5b61053b600480803573ffffffffffffffffffffffffffffffffffffffff1690602001909190803590602001908201803590602001908080601f0160208091040260200160405190810160405280939291908181526020018383808284378201915050505050509190505061173d565b005b341561054857600080fd5b610550611965565b604051808273ffffffffffffffffffffffffffffffffffffffff1673ffffffffffffffffffffffffffffffffffffffff16815260200191505060405180910390f35b341561059d57600080fd5b6105a5611991565b6040518080602001828103825283818151815260200191508051906020019080838360005b838110156105e55780820151818401526020810190506105ca565b50505050905090810190601f1680156106125780820380516001836020036101000a031916815260200191505b509250505060405180910390f35b341561062b57600080fd5b61069a600480803573ffffffffffffffffffffffffffffffffffffffff1690602001909190803590602001908201803590602001908080601f01602080910402602001604051908101604052809392919081815260200183838082843782019150505050505091905050611a3c565b005b34156106a757600080fd5b6106af611c64565b6040518082815260200191505060405180910390f35b34156106d057600080fd5b6106d8611c70565b6040518082815260200191505060405180910390f35b34156106f957600080fd5b61072e600480803573ffffffffffffffffffffffffffffffffffffffff16906020019091908035906020019091905050611c7c565b005b341561073b57600080fd5b610743611dae565b6040518080602001828103825283818151815260200191508051906020019080838360005b83811015610783578082015181840152602081019050610768565b50505050905090810190601f1680156107b05780820380516001836020036101000a031916815260200191505b509250505060405180910390f35b34156107c957600080fd5b6107f5600480803573ffffffffffffffffffffffffffffffffffffffff16906020019091905050611e59565b005b341561080257600080fd5b610837600480803573ffffffffffffffffffffffffffffffffffffffff16906020019091908035906020019091905050611f2e565b005b341561084457600080fd5b61084c612060565b6040518082815260200191505060405180910390f35b341561086d57600080fd5b61087561206c565b6040518082815260200191505060405180910390f35b341561089657600080fd5b6108cb600480803573ffffffffffffffffffffffffffffffffffffffff16906020019091908035906020019091905050612078565b005b34156108d857600080fd5b61090d600480803573ffffffffffffffffffffffffffffffffffffffff169060200190919080359060200190919050506121aa565b005b341561091a57600080fd5b6109226122dc565b6040518080602001828103825283818151815260200191508051906020019060200280838360005b8381101561096557808201518184015260208101905061094a565b505050509050019250505060405180910390f35b341561098457600080fd5b6109cf600480803573ffffffffffffffffffffffffffffffffffffffff1690602001909190803573ffffffffffffffffffffffffffffffffffffffff16906020019091905050612373565b005b60008060090154905090565b6109e56125f1565b81600060070160009054906101000a900473ffffffffffffffffffffffffffffffffffffffff1673ffffffffffffffffffffffffffffffffffffffff168173ffffffffffffffffffffffffffffffffffffffff16148015610a965750600060070160009054906101000a900473ffffffffffffffffffffffffffffffffffffffff1673ffffffffffffffffffffffffffffffffffffffff163373ffffffffffffffffffffffffffffffffffffffff16145b1515610aa157600080fd5b600080600e0160009054906101000a900460ff1660ff16141515610ac457600080fd5b6000806005015414151515610ad857600080fd5b60003414151515610ae857600080fd5b346000600b0154141515610afb57600080fd5b600060010160009054906101000a900473ffffffffffffffffffffffffffffffffffffffff16826000019073ffffffffffffffffffffffffffffffffffffffff16908173ffffffffffffffffffffffffffffffffffffffff168152505082826020019073ffffffffffffffffffffffffffffffffffffffff16908173ffffffffffffffffffffffffffffffffffffffff16815250506000600b015482604001818152505060006005015482606001818152505042826080018181525050348260a0018181525050816000600f0160008060010160009054906101000a900473ffffffffffffffffffffffffffffffffffffffff1673ffffffffffffffffffffffffffffffffffffffff1673ffffffffffffffffffffffffffffffffffffffff16815260200190815260200160002060008201518160000160006101000a81548173ffffffffffffffffffffffffffffffffffffffff021916908373ffffffffffffffffffffffffffffffffffffffff16021790555060208201518160010160006101000a81548173ffffffffffffffffffffffffffffffffffffffff021916908373ffffffffffffffffffffffffffffffffffffffff16021790555060408201518160020155606082015181600301556080820151816004015560a08201518160050155905050610cea6125d0565b7f7af325d48818750f963839bd931e6a1023dd2ed672f2425c863d490424bb0dcf426040518082815260200191505060405180910390a1505050565b600080600e0160009054906101000a900460ff16905090565b81600060070160009054906101000a900473ffffffffffffffffffffffffffffffffffffffff1673ffffffffffffffffffffffffffffffffffffffff168173ffffffffffffffffffffffffffffffffffffffff16148015610df05750600060070160009054906101000a900473ffffffffffffffffffffffffffffffffffffffff1673ffffffffffffffffffffffffffffffffffffffff163373ffffffffffffffffffffffffffffffffffffffff16145b1515610dfb57600080fd5b7f905ce9505a31c61323517d38b75c6bbb114fed78b891f151beb806d7dae9fb498383604051808373ffffffffffffffffffffffffffffffffffffffff1673ffffffffffffffffffffffffffffffffffffffff16815260200180602001828103825283818151815260200191508051906020019080838360005b83811015610e90578082015181840152602081019050610e75565b50505050905090810190601f168015610ebd5780820380516001836020036101000a031916815260200191505b50935050505060405180910390a1505050565b600080600e0160009054906101000a900460ff1660ff16141515610ef357600080fd5b81600060010160009054906101000a900473ffffffffffffffffffffffffffffffffffffffff1673ffffffffffffffffffffffffffffffffffffffff168173ffffffffffffffffffffffffffffffffffffffff16148015610fa45750600060010160009054906101000a900473ffffffffffffffffffffffffffffffffffffffff1673ffffffffffffffffffffffffffffffffffffffff163373ffffffffffffffffffffffffffffffffffffffff16145b1515610faf57600080fd5b7fde145cf04afde22a3cd8681d615255fd5448bb63bf80995d283536eea03aa5ca600060070160009054906101000a900473ffffffffffffffffffffffffffffffffffffffff1683604051808373ffffffffffffffffffffffffffffffffffffffff1673ffffffffffffffffffffffffffffffffffffffff1681526020018273ffffffffffffffffffffffffffffffffffffffff1673ffffffffffffffffffffffffffffffffffffffff1681526020019250505060405180910390a181600060070160006101000a81548173ffffffffffffffffffffffffffffffffffffffff021916908373ffffffffffffffffffffffffffffffffffffffff160217905550505050565b80600060010160009054906101000a900473ffffffffffffffffffffffffffffffffffffffff1673ffffffffffffffffffffffffffffffffffffffff168173ffffffffffffffffffffffffffffffffffffffff161480156111655750600060010160009054906101000a900473ffffffffffffffffffffffffffffffffffffffff1673ffffffffffffffffffffffffffffffffffffffff163373ffffffffffffffffffffffffffffffffffffffff16145b151561117057600080fd5b600080600f0160008060010160009054906101000a900473ffffffffffffffffffffffffffffffffffffffff1673ffffffffffffffffffffffffffffffffffffffff1673ffffffffffffffffffffffffffffffffffffffff16815260200190815260200160002060050154141515156111e857600080fd5b8173ffffffffffffffffffffffffffffffffffffffff166108fc6000600f0160008060010160009054906101000a900473ffffffffffffffffffffffffffffffffffffffff1673ffffffffffffffffffffffffffffffffffffffff1673ffffffffffffffffffffffffffffffffffffffff168152602001908152602001600020600501549081150290604051600060405180830381858888f19350505050151561129157600080fd5b7f9fe2db218b58c00ab3556f2be44b2769b37978368c63313d82d78306568e47768242604051808373ffffffffffffffffffffffffffffffffffffffff1673ffffffffffffffffffffffffffffffffffffffff1681526020018281526020019250505060405180910390a15050565b60008060030154905090565b600080600e0160009054906101000a900460ff1660ff1614151561132f57600080fd5b81600060010160009054906101000a900473ffffffffffffffffffffffffffffffffffffffff1673ffffffffffffffffffffffffffffffffffffffff168173ffffffffffffffffffffffffffffffffffffffff161480156113e05750600060010160009054906101000a900473ffffffffffffffffffffffffffffffffffffffff1673ffffffffffffffffffffffffffffffffffffffff163373ffffffffffffffffffffffffffffffffffffffff16145b15156113eb57600080fd5b7f8cc2091efde98303f7cad4c4ed5295513679272dc1ad74dc332b6db882391d5060006005015483604051808381526020018281526020019250505060405180910390a181600060050181905550505050565b600080600e0160009054906101000a900460ff1660ff1614151561146157600080fd5b81600060010160009054906101000a900473ffffffffffffffffffffffffffffffffffffffff1673ffffffffffffffffffffffffffffffffffffffff168173ffffffffffffffffffffffffffffffffffffffff161480156115125750600060010160009054906101000a900473ffffffffffffffffffffffffffffffffffffffff1673ffffffffffffffffffffffffffffffffffffffff163373ffffffffffffffffffffffffffffffffffffffff16145b151561151d57600080fd5b7fbc728fadeedab516d0cf01f1a4293e19f2b1da3c535eb709a6142134e6c8f7036000600801836040518080602001806020018381038352858181546001816001161561010002031660029004815260200191508054600181600116156101000203166002900480156115d15780601f106115a6576101008083540402835291602001916115d1565b820191906000526020600020905b8154815290600101906020018083116115b457829003601f168201915b5050838103825284818151815260200191508051906020019080838360005b8381101561160b5780820151818401526020810190506115f0565b50505050905090810190601f1680156116385780820380516001836020036101000a031916815260200191505b5094505050505060405180910390a18160006008019080519060200190611660929190612654565b50505050565b60008060070160009054906101000a900473ffffffffffffffffffffffffffffffffffffffff16905090565b61169a6126d4565b6000600c018054600181600116156101000203166002900480601f0160208091040260200160405190810160405280929190818152602001828054600181600116156101000203166002900480156117335780601f1061170857610100808354040283529160200191611733565b820191906000526020600020905b81548152906001019060200180831161171657829003601f168201915b5050505050905090565b600080600e0160009054906101000a900460ff1660ff1614151561176057600080fd5b81600060010160009054906101000a900473ffffffffffffffffffffffffffffffffffffffff1673ffffffffffffffffffffffffffffffffffffffff168173ffffffffffffffffffffffffffffffffffffffff161480156118115750600060010160009054906101000a900473ffffffffffffffffffffffffffffffffffffffff1673ffffffffffffffffffffffffffffffffffffffff163373ffffffffffffffffffffffffffffffffffffffff16145b151561181c57600080fd5b7f1ce2c4dfadf9f98e25eb84225329cdb8d8ed2f560ff36624874a4625bb9899d36000600d01836040518080602001806020018381038352858181546001816001161561010002031660029004815260200191508054600181600116156101000203166002900480156118d05780601f106118a5576101008083540402835291602001916118d0565b820191906000526020600020905b8154815290600101906020018083116118b357829003601f168201915b5050838103825284818151815260200191508051906020019080838360005b8381101561190a5780820151818401526020810190506118ef565b50505050905090810190601f1680156119375780820380516001836020036101000a031916815260200191505b5094505050505060405180910390a1816000600d01908051906020019061195f929190612654565b50505050565b60008060010160009054906101000a900473ffffffffffffffffffffffffffffffffffffffff16905090565b6119996126d4565b6000600d018054600181600116156101000203166002900480601f016020809104026020016040519081016040528092919081815260200182805460018160011615610100020316600290048015611a325780601f10611a0757610100808354040283529160200191611a32565b820191906000526020600020905b815481529060010190602001808311611a1557829003601f168201915b5050505050905090565b600080600e0160009054906101000a900460ff1660ff16141515611a5f57600080fd5b81600060010160009054906101000a900473ffffffffffffffffffffffffffffffffffffffff1673ffffffffffffffffffffffffffffffffffffffff168173ffffffffffffffffffffffffffffffffffffffff16148015611b105750600060010160009054906101000a900473ffffffffffffffffffffffffffffffffffffffff1673ffffffffffffffffffffffffffffffffffffffff163373ffffffffffffffffffffffffffffffffffffffff16145b1515611b1b57600080fd5b7fbb6648431cd2899e047ecdf132e9ffbd01373ddb2176e3dcdb4f22de967e020e6000600c0183604051808060200180602001838103835285818154600181600116156101000203166002900481526020019150805460018160011615610100020316600290048015611bcf5780601f10611ba457610100808354040283529160200191611bcf565b820191906000526020600020905b815481529060010190602001808311611bb257829003601f168201915b5050838103825284818151815260200191508051906020019080838360005b83811015611c09578082015181840152602081019050611bee565b50505050905090810190601f168015611c365780820380516001836020036101000a031916815260200191505b5094505050505060405180910390a1816000600c019080519060200190611c5e929190612654565b50505050565b60008060050154905090565b600080600a0154905090565b600080600e0160009054906101000a900460ff1660ff16141515611c9f57600080fd5b81600060010160009054906101000a900473ffffffffffffffffffffffffffffffffffffffff1673ffffffffffffffffffffffffffffffffffffffff168173ffffffffffffffffffffffffffffffffffffffff16148015611d505750600060010160009054906101000a900473ffffffffffffffffffffffffffffffffffffffff1673ffffffffffffffffffffffffffffffffffffffff163373ffffffffffffffffffffffffffffffffffffffff16145b1515611d5b57600080fd5b7fa51cb028d10edb6239c8fda5af0a18a6c2fd31b5df0078d73bd8bbf844c59a2060006009015483604051808381526020018281526020019250505060405180910390a181600060090181905550505050565b611db66126d4565b60006008018054600181600116156101000203166002900480601f016020809104026020016040519081016040528092919081815260200182805460018160011615610100020316600290048015611e4f5780601f10611e2457610100808354040283529160200191611e4f565b820191906000526020600020905b815481529060010190602001808311611e3257829003601f168201915b5050505050905090565b80600060010160009054906101000a900473ffffffffffffffffffffffffffffffffffffffff1673ffffffffffffffffffffffffffffffffffffffff168173ffffffffffffffffffffffffffffffffffffffff16148015611f0a5750600060010160009054906101000a900473ffffffffffffffffffffffffffffffffffffffff1673ffffffffffffffffffffffffffffffffffffffff163373ffffffffffffffffffffffffffffffffffffffff16145b1515611f1557600080fd5b8173ffffffffffffffffffffffffffffffffffffffff16ff5b600080600e0160009054906101000a900460ff1660ff16141515611f5157600080fd5b81600060010160009054906101000a900473ffffffffffffffffffffffffffffffffffffffff1673ffffffffffffffffffffffffffffffffffffffff168173ffffffffffffffffffffffffffffffffffffffff161480156120025750600060010160009054906101000a900473ffffffffffffffffffffffffffffffffffffffff1673ffffffffffffffffffffffffffffffffffffffff163373ffffffffffffffffffffffffffffffffffffffff16145b151561200d57600080fd5b7fff66e7ace98a1d455dbb9a4f9af91dbae0c448974279e37f7b9f4ae3ebcc2d216000600b015483604051808381526020018281526020019250505060405180910390a1816000600b0181905550505050565b600080600b0154905090565b60008060040154905090565b600080600e0160009054906101000a900460ff1660ff1614151561209b57600080fd5b81600060010160009054906101000a900473ffffffffffffffffffffffffffffffffffffffff1673ffffffffffffffffffffffffffffffffffffffff168173ffffffffffffffffffffffffffffffffffffffff1614801561214c5750600060010160009054906101000a900473ffffffffffffffffffffffffffffffffffffffff1673ffffffffffffffffffffffffffffffffffffffff163373ffffffffffffffffffffffffffffffffffffffff16145b151561215757600080fd5b7fc54e191f906c628da43855791c7904e0cb196184699e1283817e901a8bb2751260006003015483604051808381526020018281526020019250505060405180910390a181600060030181905550505050565b600080600e0160009054906101000a900460ff1660ff161415156121cd57600080fd5b81600060010160009054906101000a900473ffffffffffffffffffffffffffffffffffffffff1673ffffffffffffffffffffffffffffffffffffffff168173ffffffffffffffffffffffffffffffffffffffff1614801561227e5750600060010160009054906101000a900473ffffffffffffffffffffffffffffffffffffffff1673ffffffffffffffffffffffffffffffffffffffff163373ffffffffffffffffffffffffffffffffffffffff16145b151561228957600080fd5b7f1b0a07c193a1491ea2f21e86d0f00d395192e2c9c4b5a86e0a1cd98cb525f80f6000600a015483604051808381526020018281526020019250505060405180910390a1816000600a0181905550505050565b6122e46126e8565b600060020180548060200260200160405190810160405280929190818152602001828054801561236957602002820191906000526020600020905b8160009054906101000a900473ffffffffffffffffffffffffffffffffffffffff1673ffffffffffffffffffffffffffffffffffffffff168152602001906001019080831161231f575b5050505050905090565b81600060010160009054906101000a900473ffffffffffffffffffffffffffffffffffffffff1673ffffffffffffffffffffffffffffffffffffffff168173ffffffffffffffffffffffffffffffffffffffff161480156124245750600060010160009054906101000a900473ffffffffffffffffffffffffffffffffffffffff1673ffffffffffffffffffffffffffffffffffffffff163373ffffffffffffffffffffffffffffffffffffffff16145b151561242f57600080fd5b8173ffffffffffffffffffffffffffffffffffffffff16600060010160009054906101000a900473ffffffffffffffffffffffffffffffffffffffff1673ffffffffffffffffffffffffffffffffffffffff161415156124f057600060020180548060010182816124a091906126fc565b9160005260206000209001600084909190916101000a81548173ffffffffffffffffffffffffffffffffffffffff021916908373ffffffffffffffffffffffffffffffffffffffff160217905550505b81600060010160006101000a81548173ffffffffffffffffffffffffffffffffffffffff021916908373ffffffffffffffffffffffffffffffffffffffff1602179055507fb532073b38c83145e3e5135377a08bf9aab55bc0fd7c1179cd4fb995d2a5159c8383604051808373ffffffffffffffffffffffffffffffffffffffff1673ffffffffffffffffffffffffffffffffffffffff1681526020018273ffffffffffffffffffffffffffffffffffffffff1673ffffffffffffffffffffffffffffffffffffffff1681526020019250505060405180910390a1505050565b60016000600e0160006101000a81548160ff021916908360ff160217905550565b60c060405190810160405280600073ffffffffffffffffffffffffffffffffffffffff168152602001600073ffffffffffffffffffffffffffffffffffffffff168152602001600081526020016000815260200160008152602001600081525090565b828054600181600116156101000203166002900490600052602060002090601f016020900481019282601f1061269557805160ff19168380011785556126c3565b828001600101855582156126c3579182015b828111156126c25782518255916020019190600101906126a7565b5b5090506126d09190612728565b5090565b602060405190810160405280600081525090565b602060405190810160405280600081525090565b815481835581811511612723578183600052602060002091820191016127229190612728565b5b505050565b61274a91905b8082111561274657600081600090555060010161272e565b5090565b905600a165627a7a723058204b0e2002f108b40bb199c61e55dc14751d119ae5973a4642c874f4b1d150bcc40029",
  "source": "pragma solidity ^0.4.18;\n\nimport \"./Calero.sol\";\nimport \"./Company.sol\";\n\ncontract Invoice {\n\n    struct SettlementStruct {\n        address seller;\n        address payer;\n        uint amount;\n        uint offerExpiresDate;\n        uint payedOnDate;\n        uint paid;\n    }\n\n    struct InvoiceStruct {\n        address caleroMain;\n        address owner;\n        address[] owners;\n        uint invoiceId;\n        uint issueDate;\n        uint payDueDate;\n        address seller;\n        address payer;\n\n        // Invoice product/service info\n        string item;\n        uint quantity;\n        uint pricePerUnit;\n        uint amountForPay;\n        string currency;\n        string messageToRecipient;\n\n        uint8 state; // State 0 - Pending, 1 - Finished\n        mapping(address => SettlementStruct) settlements;\n    }\n\n    InvoiceStruct invoice;\n\n    function Invoice(\n        address _seller,\n        address _payer,\n        uint _invoiceId,\n        uint _payDueDate,\n        string _item,\n        uint _quantity,\n        uint _pricePerUnit,\n        uint _amountForPay,\n        string _currency,\n        string _messageToRecipient,\n        address caleroMain) public {\n        invoice.owner = _seller;\n        invoice.owners.push(_seller);\n        invoice.payer = _payer;\n        invoice.invoiceId = _invoiceId;\n        invoice.issueDate = now;\n        invoice.payDueDate = _payDueDate;\n\n        invoice.item = _item;\n        invoice.quantity = _quantity;\n        invoice.pricePerUnit = _pricePerUnit;\n        invoice.amountForPay = _amountForPay;\n        invoice.currency = _currency;\n\n        invoice.messageToRecipient = _messageToRecipient;\n\n        invoice.state = 0;\n        invoice.caleroMain = caleroMain;\n    }\n\n    // Events\n    event InvoiceClosed(uint time);\n    event WithdrawMoney(address owner, uint time);\n    event CommentSent(address company, string message);\n    event OwnerChanged(address oldValue, address newValue);\n    event CostumerChanged(address oldValue, address newValue);\n    event InvoiceIdChanged(uint oldValue, uint newValue);\n    event PayDueDateChanged(uint oldValue, uint newValue);\n    event ItemChanged(string oldValue, string newValue);\n    event QuantityChanged(uint oldValue, uint newValue);\n    event PricePerUnitChanged(uint oldValue, uint newValue);\n    event AmountForTransferChanged(uint oldValue, uint newValue);\n    event CurrencyChanged(string oldValue, string newValue);\n    event MessageToRecipientChanged(string oldValue, string newValue);\n\n    // Modifiers\n    modifier onlyBuyer(address payer) {\n        require(payer == invoice.payer && msg.sender == invoice.payer);\n        _;\n    }\n    modifier onlyOwner(address owner) {\n        require(owner == invoice.owner && msg.sender == invoice.owner);\n        _;\n    }\n    modifier onPending() {\n        require(invoice.state == 0);\n        _;\n    }\n\n    // Actions\n    function buyInvoice(address payer) public onlyBuyer(payer) payable {\n        require(invoice.state == 0); // on pending\n        require(invoice.payDueDate != 0);\n\n        // The order's value must be equal to msg.value and must be more then 0\n        require(msg.value != 0);\n        require(invoice.amountForPay == msg.value);\n\n        SettlementStruct memory settlement;\n\n        settlement.seller = invoice.owner;\n        settlement.payer = payer;\n        settlement.amount = invoice.amountForPay;\n        settlement.offerExpiresDate = invoice.payDueDate;\n        settlement.payedOnDate = now;\n        settlement.paid = msg.value;\n\n        invoice.settlements[invoice.owner] = settlement;\n\n        markAsFinished();\n        InvoiceClosed(now);\n    }\n\n    // Owner withdrawal money from sc\n    function withdrawMoney(address owner) public onlyOwner(owner) {\n        require(invoice.settlements[invoice.owner].paid != 0);\n\n        owner.transfer(invoice.settlements[invoice.owner].paid);\n        WithdrawMoney(owner, now);\n    }\n\n    // Buyer can send comment to seller\n    function sendComments(address payer, string message) onlyBuyer(payer) public {\n        /// Trigger the event\n        CommentSent(payer, message);\n    }\n\n    // Mark invoice as finished\n    function markAsFinished() private {\n        invoice.state = 1;\n    }\n\n    // Getters\n    function getOwner() public constant returns (address) {\n        return invoice.owner;\n    }\n\n    function listOwners() public constant returns (address[]) {\n        return invoice.owners;\n    }\n\n    function getCustomer() public constant returns (address) {\n        return invoice.payer;\n    }\n\n    function getInvoiceId() public constant returns (uint) {\n        return invoice.invoiceId;\n    }\n\n    function getIssueDate() public constant returns (uint) {\n        return invoice.issueDate;\n    }\n\n    function getPayDueDate() public constant returns (uint) {\n        return invoice.payDueDate;\n    }\n\n    function getItem() public constant returns (string) {\n        return invoice.item;\n    }\n\n    function getQuantity() public constant returns (uint) {\n        return invoice.quantity;\n    }\n\n    function getPricePerUnit() public constant returns (uint) {\n        return invoice.pricePerUnit;\n    }\n\n    function getAmount() public constant returns (uint) {\n        return invoice.amountForPay;\n    }\n\n    function getCurrency() public constant returns (string) {\n        return invoice.currency;\n    }\n\n    function getMessageToRecipient() public constant returns (string) {\n        return invoice.messageToRecipient;\n    }\n\n    function getState() public constant returns (uint8) {\n        return invoice.state;\n    }\n\n    // Setter\n    function changeOwner(address owner, address newOwner) public onlyOwner(owner) {\n        if (invoice.owner != newOwner) {\n            invoice.owners.push(newOwner);\n        }\n        invoice.owner = newOwner;\n        OwnerChanged(owner, newOwner);\n    }\n\n    function setCustomer(address owner, address payer) public onPending onlyOwner(owner) {\n        CostumerChanged(invoice.payer, payer);\n        invoice.payer = payer;\n    }\n\n    function setInvoiceId(address owner, uint invoiceId) public onPending onlyOwner(owner) {\n        InvoiceIdChanged(invoice.invoiceId, invoiceId);\n        invoice.invoiceId = invoiceId;\n    }\n\n    function setPayDueDate(address owner, uint payDueDate) public onPending onlyOwner(owner) {\n        PayDueDateChanged(invoice.payDueDate, payDueDate);\n        invoice.payDueDate = payDueDate;\n    }\n\n    function setItem(address owner, string item) public onPending onlyOwner(owner) {\n        ItemChanged(invoice.item, item);\n        invoice.item = item;\n    }\n\n    function setQuantity(address owner, uint quantity) public onPending onlyOwner(owner) {\n        QuantityChanged(invoice.quantity, quantity);\n        invoice.quantity = quantity;\n    }\n\n    function setPricePerUnit(address owner, uint pricePerUnit) public onPending onlyOwner(owner) {\n        PricePerUnitChanged(invoice.pricePerUnit, pricePerUnit);\n        invoice.pricePerUnit = pricePerUnit;\n    }\n\n    function setAmount(address owner, uint amount) public onPending onlyOwner(owner) {\n        AmountForTransferChanged(invoice.amountForPay, amount);\n        invoice.amountForPay = amount;\n    }\n\n    function setCurrency(address owner, string currency) public onPending onlyOwner(owner) {\n        CurrencyChanged(invoice.currency, currency);\n        invoice.currency = currency;\n    }\n\n    function setMessageToRecipient(address owner, string messageToRecipient) public onPending onlyOwner(owner) {\n        MessageToRecipientChanged(invoice.messageToRecipient, messageToRecipient);\n        invoice.messageToRecipient = messageToRecipient;\n    }\n\n    // kill the contract\n    function kill(address owner) public onlyOwner(owner) {\n        selfdestruct(owner);\n    }\n\n}",
  "sourcePath": "C:\\Users\\home\\Desktop\\CaleroWebsite\\smartcontracts\\contracts\\Invoice.sol",
  "compiler": {
    "name": "solc",
    "version": "0.4.19+commit.c4cbbb05.Emscripten.clang"
  },
  "schemaVersion": "2.0.0",
  "updatedAt": "2018-03-18T18:50:10.360Z"
}